{
  "contractName": "TodoList",
  "abi": [
    {
      "constant": true,
      "inputs": [],
      "name": "taskCount",
      "outputs": [
        {
          "name": "",
          "type": "uint256"
        }
      ],
      "payable": false,
      "stateMutability": "view",
      "type": "function",
      "signature": "0xb6cb58a5"
    },
    {
      "constant": true,
      "inputs": [
        {
          "name": "",
          "type": "uint256"
        }
      ],
      "name": "todos",
      "outputs": [
        {
          "name": "id",
          "type": "uint256"
        },
        {
          "name": "body",
          "type": "string"
        },
        {
          "name": "finished",
          "type": "bool"
        }
      ],
      "payable": false,
      "stateMutability": "view",
      "type": "function",
      "signature": "0xbc8bc2b4"
    },
    {
      "inputs": [],
      "payable": false,
      "stateMutability": "nonpayable",
      "type": "constructor",
      "signature": "constructor"
    },
    {
      "anonymous": false,
      "inputs": [
        {
          "indexed": false,
          "name": "id",
          "type": "uint256"
        },
        {
          "indexed": false,
          "name": "body",
          "type": "string"
        },
        {
          "indexed": false,
          "name": "finished",
          "type": "bool"
        }
      ],
      "name": "TaskCreated",
      "type": "event",
      "signature": "0x05d0fb833127fc08168556d0e7ca9554fc3f6bc843b3b7d2bf1c35aea6bab660"
    },
    {
      "anonymous": false,
      "inputs": [
        {
          "indexed": false,
          "name": "id",
          "type": "uint256"
        },
        {
          "indexed": false,
          "name": "finished",
          "type": "bool"
        }
      ],
      "name": "TaskCompleted",
      "type": "event",
      "signature": "0xe21fa966ca5cd02748c0752352d18c48165e61cb55b4c29cccf924b5a95fcff1"
    },
    {
      "constant": false,
      "inputs": [
        {
          "name": "_content",
          "type": "string"
        }
      ],
      "name": "createTodo",
      "outputs": [],
      "payable": false,
      "stateMutability": "nonpayable",
      "type": "function",
      "signature": "0xe34f1221"
    },
    {
      "constant": false,
      "inputs": [
        {
          "name": "_id",
          "type": "uint256"
        }
      ],
      "name": "toggleCompleted",
      "outputs": [],
      "payable": false,
      "stateMutability": "nonpayable",
      "type": "function",
      "signature": "0x455f5024"
    }
  ],
  "bytecode": "0x60806040526000805534801561001457600080fd5b5060408051808201909152601c81527f50726573656e74206f6e20457468657265756d2120286261646c792900000000602082015261005b906401000000006100a6810204565b60408051808201909152600781527f233220546573740000000000000000000000000000000000000000000000000060208201526100a1906401000000006100a6810204565b610265565b60008054600190810180835560408051606081018252828152602080820187815282840187905293865284815291909420845181559151805192936100f3939085019291909101906101ca565b5060408201518160020160006101000a81548160ff0219169083151502179055509050507f05d0fb833127fc08168556d0e7ca9554fc3f6bc843b3b7d2bf1c35aea6bab660600054826000604051808481526020018060200183151515158152602001828103825284818151815260200191508051906020019080838360005b8381101561018b578181015183820152602001610173565b50505050905090810190601f1680156101b85780820380516001836020036101000a031916815260200191505b5094505050505060405180910390a150565b828054600181600116156101000203166002900490600052602060002090601f016020900481019282601f1061020b57805160ff1916838001178555610238565b82800160010185558215610238579182015b8281111561023857825182559160200191906001019061021d565b50610244929150610248565b5090565b61026291905b80821115610244576000815560010161024e565b90565b610644806102746000396000f3fe6080604052600436106100615763ffffffff7c0100000000000000000000000000000000000000000000000000000000600035041663455f50248114610066578063b6cb58a514610092578063bc8bc2b4146100b9578063e34f12211461016d575b600080fd5b34801561007257600080fd5b506100906004803603602081101561008957600080fd5b5035610220565b005b34801561009e57600080fd5b506100a7610380565b60408051918252519081900360200190f35b3480156100c557600080fd5b506100e3600480360360208110156100dc57600080fd5b5035610386565b604051808481526020018060200183151515158152602001828103825284818151815260200191508051906020019080838360005b83811015610130578181015183820152602001610118565b50505050905090810190601f16801561015d5780820380516001836020036101000a031916815260200191505b5094505050505060405180910390f35b34801561017957600080fd5b506100906004803603602081101561019057600080fd5b8101906020810181356401000000008111156101ab57600080fd5b8201836020820111156101bd57600080fd5b803590602001918460018302840111640100000000831117156101df57600080fd5b91908080601f016020809104026020016040519081016040528093929190818152602001838380828437600092019190915250929550610435945050505050565b610228610559565b60008281526001602081815260409283902083516060810185528154815281840180548651600296821615610100026000190190911695909504601f810185900485028601850190965285855290949193858401939092908301828280156102d15780601f106102a6576101008083540402835291602001916102d1565b820191906000526020600020905b8154815290600101906020018083116102b457829003601f168201915b50505091835250506002919091015460ff161515602091820152604080830180511590526000858152600180845291902083518155838301518051949550859491936103229385019291019061057d565b50604091820151600291909101805460ff1916911515919091179055818101518151848152901515602082015281517fe21fa966ca5cd02748c0752352d18c48165e61cb55b4c29cccf924b5a95fcff1929181900390910190a15050565b60005481565b600160208181526000928352604092839020805481840180548651600296821615610100026000190190911695909504601f810185900485028601850190965285855290949193929091908301828280156104225780601f106103f757610100808354040283529160200191610422565b820191906000526020600020905b81548152906001019060200180831161040557829003601f168201915b5050506002909301549192505060ff1683565b60008054600190810180835560408051606081018252828152602080820187815282840187905293865284815291909420845181559151805192936104829390850192919091019061057d565b5060408201518160020160006101000a81548160ff0219169083151502179055509050507f05d0fb833127fc08168556d0e7ca9554fc3f6bc843b3b7d2bf1c35aea6bab660600054826000604051808481526020018060200183151515158152602001828103825284818151815260200191508051906020019080838360005b8381101561051a578181015183820152602001610502565b50505050905090810190601f1680156105475780820380516001836020036101000a031916815260200191505b5094505050505060405180910390a150565b60606040519081016040528060008152602001606081526020016000151581525090565b828054600181600116156101000203166002900490600052602060002090601f016020900481019282601f106105be57805160ff19168380011785556105eb565b828001600101855582156105eb579182015b828111156105eb5782518255916020019190600101906105d0565b506105f79291506105fb565b5090565b61061591905b808211156105f75760008155600101610601565b9056fea165627a7a72305820e59d9db367bfff8b8d6262f16b13477a12b1e8bcfbf09c82dc849bc81bf052410029",
  "source": "pragma solidity ^0.5.0;\n\ncontract TodoList {\n  uint public taskCount = 0;\n  /* this is our public variable to be accessed on the blockchain */\n\n  struct Todo {\n    uint id;\n    string body;\n    bool finished;\n  }\n\n  mapping(uint => Todo) public todos;\n  /* associative array / hash */\n  /* becomes our database */\n\n  event TaskCreated(\n    uint id,\n    string body,\n    bool finished\n    );\n\n  event TaskCompleted(\n    uint id,\n    bool finished\n    );\n\n  constructor() public{\n    createTodo(\"Present on Ethereum! (badly)\");\n    createTodo(\"#2 Test\");\n  }\n  /* initialize */\n\n  function createTodo(string memory _content) public {\n    taskCount ++;\n    todos[taskCount] = Todo(taskCount, _content, false);\n    emit TaskCreated(taskCount, _content, false); // subscribable from outside\n  } \n\n  function toggleCompleted(uint _id) public {\n    Todo memory _todo = todos[_id];\n    _todo.finished = !_todo.finished;\n    todos[_id] = _todo;\n    emit TaskCompleted(_id, _todo.finished);\n  }\n\n\n\n}\n",
  "sourcePath": "/home/mrue/aos/eth-test/contracts/TodoList.sol",
  "compiler": {
    "name": "solc",
    "version": "0.5.0+commit.1d4f565a.Emscripten.clang"
  },
  "schemaVersion": "3.0.1",
  "updatedAt": "2019-11-26T18:26:34.502Z",
  "devdoc": {
    "methods": {}
  },
  "userdoc": {
    "methods": {}
  }
}